{
  "abi": [
    {
      "inputs": [
        {
          "internalType": "address",
          "name": "asset_",
          "type": "address"
        },
        {
          "internalType": "string",
          "name": "_name",
          "type": "string"
        },
        {
          "internalType": "string",
          "name": "_symbol",
          "type": "string"
        },
        {
          "internalType": "uint256",
          "name": "_approvalDelay",
          "type": "uint256"
        },
        {
          "internalType": "uint256",
          "name": "_totalTvlCap",
          "type": "uint256"
        }
      ],
      "stateMutability": "nonpayable",
      "type": "constructor"
    },
    {
      "anonymous": false,
      "inputs": [
        {
          "indexed": true,
          "internalType": "address",
          "name": "owner",
          "type": "address"
        },
        {
          "indexed": true,
          "internalType": "address",
          "name": "spender",
          "type": "address"
        },
        {
          "indexed": false,
          "internalType": "uint256",
          "name": "value",
          "type": "uint256"
        }
      ],
      "name": "Approval",
      "type": "event"
    },
    {
      "anonymous": false,
      "inputs": [
        {
          "indexed": true,
          "internalType": "address",
          "name": "sender",
          "type": "address"
        },
        {
          "indexed": true,
          "internalType": "address",
          "name": "owner",
          "type": "address"
        },
        {
          "indexed": false,
          "internalType": "uint256",
          "name": "assets",
          "type": "uint256"
        },
        {
          "indexed": false,
          "internalType": "uint256",
          "name": "shares",
          "type": "uint256"
        }
      ],
      "name": "Deposit",
      "type": "event"
    },
    {
      "anonymous": false,
      "inputs": [
        {
          "indexed": false,
          "internalType": "uint8",
          "name": "version",
          "type": "uint8"
        }
      ],
      "name": "Initialized",
      "type": "event"
    },
    {
      "anonymous": false,
      "inputs": [
        {
          "indexed": false,
          "internalType": "address",
          "name": "implementation",
          "type": "address"
        }
      ],
      "name": "NewStratCandidate",
      "type": "event"
    },
    {
      "anonymous": false,
      "inputs": [
        {
          "indexed": true,
          "internalType": "address",
          "name": "previousOwner",
          "type": "address"
        },
        {
          "indexed": true,
          "internalType": "address",
          "name": "newOwner",
          "type": "address"
        }
      ],
      "name": "OwnershipTransferred",
      "type": "event"
    },
    {
      "anonymous": false,
      "inputs": [
        {
          "indexed": true,
          "internalType": "address",
          "name": "from",
          "type": "address"
        },
        {
          "indexed": true,
          "internalType": "address",
          "name": "to",
          "type": "address"
        },
        {
          "indexed": false,
          "internalType": "uint256",
          "name": "value",
          "type": "uint256"
        }
      ],
      "name": "Transfer",
      "type": "event"
    },
    {
      "anonymous": false,
      "inputs": [
        {
          "indexed": true,
          "internalType": "address",
          "name": "onwer_",
          "type": "address"
        },
        {
          "indexed": false,
          "internalType": "uint256",
          "name": "oldTvlCap",
          "type": "uint256"
        },
        {
          "indexed": false,
          "internalType": "uint256",
          "name": "newTvlCap",
          "type": "uint256"
        }
      ],
      "name": "TvlCapChange",
      "type": "event"
    },
    {
      "anonymous": false,
      "inputs": [
        {
          "indexed": false,
          "internalType": "address",
          "name": "implementation",
          "type": "address"
        }
      ],
      "name": "UpgradeStrat",
      "type": "event"
    },
    {
      "anonymous": false,
      "inputs": [
        {
          "indexed": true,
          "internalType": "address",
          "name": "onwer_",
          "type": "address"
        },
        {
          "indexed": true,
          "internalType": "address",
          "name": "user",
          "type": "address"
        },
        {
          "indexed": false,
          "internalType": "uint256",
          "name": "oldTvlCap",
          "type": "uint256"
        },
        {
          "indexed": false,
          "internalType": "uint256",
          "name": "newTvlCap",
          "type": "uint256"
        }
      ],
      "name": "UserTvlCapChange",
      "type": "event"
    },
    {
      "anonymous": false,
      "inputs": [
        {
          "indexed": true,
          "internalType": "address",
          "name": "sender",
          "type": "address"
        },
        {
          "indexed": true,
          "internalType": "address",
          "name": "receiver",
          "type": "address"
        },
        {
          "indexed": true,
          "internalType": "address",
          "name": "owner",
          "type": "address"
        },
        {
          "indexed": false,
          "internalType": "uint256",
          "name": "assets",
          "type": "uint256"
        },
        {
          "indexed": false,
          "internalType": "uint256",
          "name": "shares",
          "type": "uint256"
        }
      ],
      "name": "Withdraw",
      "type": "event"
    },
    {
      "inputs": [
        {
          "internalType": "address",
          "name": "owner",
          "type": "address"
        },
        {
          "internalType": "address",
          "name": "spender",
          "type": "address"
        }
      ],
      "name": "allowance",
      "outputs": [
        {
          "internalType": "uint256",
          "name": "",
          "type": "uint256"
        }
      ],
      "stateMutability": "view",
      "type": "function"
    },
    {
      "inputs": [],
      "name": "approvalDelay",
      "outputs": [
        {
          "internalType": "uint256",
          "name": "",
          "type": "uint256"
        }
      ],
      "stateMutability": "view",
      "type": "function"
    },
    {
      "inputs": [
        {
          "internalType": "address",
          "name": "spender",
          "type": "address"
        },
        {
          "internalType": "uint256",
          "name": "amount",
          "type": "uint256"
        }
      ],
      "name": "approve",
      "outputs": [
        {
          "internalType": "bool",
          "name": "",
          "type": "bool"
        }
      ],
      "stateMutability": "nonpayable",
      "type": "function"
    },
    {
      "inputs": [],
      "name": "asset",
      "outputs": [
        {
          "internalType": "address",
          "name": "",
          "type": "address"
        }
      ],
      "stateMutability": "view",
      "type": "function"
    },
    {
      "inputs": [
        {
          "internalType": "address",
          "name": "account",
          "type": "address"
        }
      ],
      "name": "balanceOf",
      "outputs": [
        {
          "internalType": "uint256",
          "name": "",
          "type": "uint256"
        }
      ],
      "stateMutability": "view",
      "type": "function"
    },
    {
      "inputs": [
        {
          "internalType": "uint256",
          "name": "shares",
          "type": "uint256"
        }
      ],
      "name": "convertToAssets",
      "outputs": [
        {
          "internalType": "uint256",
          "name": "assets",
          "type": "uint256"
        }
      ],
      "stateMutability": "view",
      "type": "function"
    },
    {
      "inputs": [
        {
          "internalType": "uint256",
          "name": "assets",
          "type": "uint256"
        }
      ],
      "name": "convertToShares",
      "outputs": [
        {
          "internalType": "uint256",
          "name": "shares",
          "type": "uint256"
        }
      ],
      "stateMutability": "view",
      "type": "function"
    },
    {
      "inputs": [],
      "name": "decimals",
      "outputs": [
        {
          "internalType": "uint8",
          "name": "",
          "type": "uint8"
        }
      ],
      "stateMutability": "view",
      "type": "function"
    },
    {
      "inputs": [
        {
          "internalType": "address",
          "name": "spender",
          "type": "address"
        },
        {
          "internalType": "uint256",
          "name": "subtractedValue",
          "type": "uint256"
        }
      ],
      "name": "decreaseAllowance",
      "outputs": [
        {
          "internalType": "bool",
          "name": "",
          "type": "bool"
        }
      ],
      "stateMutability": "nonpayable",
      "type": "function"
    },
    {
      "inputs": [
        {
          "internalType": "uint256",
          "name": "assets",
          "type": "uint256"
        },
        {
          "internalType": "address",
          "name": "receiver",
          "type": "address"
        }
      ],
      "name": "deposit",
      "outputs": [
        {
          "internalType": "uint256",
          "name": "",
          "type": "uint256"
        }
      ],
      "stateMutability": "nonpayable",
      "type": "function"
    },
    {
      "inputs": [],
      "name": "getStratProposal",
      "outputs": [
        {
          "components": [
            {
              "internalType": "address",
              "name": "implementation",
              "type": "address"
            },
            {
              "internalType": "uint256",
              "name": "proposedTime",
              "type": "uint256"
            }
          ],
          "internalType": "struct StratCandidate",
          "name": "",
          "type": "tuple"
        }
      ],
      "stateMutability": "view",
      "type": "function"
    },
    {
      "inputs": [
        {
          "internalType": "address",
          "name": "_token",
          "type": "address"
        }
      ],
      "name": "inCaseTokensGetStuck",
      "outputs": [],
      "stateMutability": "nonpayable",
      "type": "function"
    },
    {
      "inputs": [
        {
          "internalType": "address",
          "name": "spender",
          "type": "address"
        },
        {
          "internalType": "uint256",
          "name": "addedValue",
          "type": "uint256"
        }
      ],
      "name": "increaseAllowance",
      "outputs": [
        {
          "internalType": "bool",
          "name": "",
          "type": "bool"
        }
      ],
      "stateMutability": "nonpayable",
      "type": "function"
    },
    {
      "inputs": [
        {
          "internalType": "contract IStrategy",
          "name": "_strategy",
          "type": "address"
        }
      ],
      "name": "init",
      "outputs": [],
      "stateMutability": "nonpayable",
      "type": "function"
    },
    {
      "inputs": [
        {
          "internalType": "address",
          "name": "receiver",
          "type": "address"
        }
      ],
      "name": "maxDeposit",
      "outputs": [
        {
          "internalType": "uint256",
          "name": "",
          "type": "uint256"
        }
      ],
      "stateMutability": "view",
      "type": "function"
    },
    {
      "inputs": [
        {
          "internalType": "address",
          "name": "receiver",
          "type": "address"
        }
      ],
      "name": "maxMint",
      "outputs": [
        {
          "internalType": "uint256",
          "name": "",
          "type": "uint256"
        }
      ],
      "stateMutability": "view",
      "type": "function"
    },
    {
      "inputs": [
        {
          "internalType": "address",
          "name": "owner",
          "type": "address"
        }
      ],
      "name": "maxRedeem",
      "outputs": [
        {
          "internalType": "uint256",
          "name": "",
          "type": "uint256"
        }
      ],
      "stateMutability": "view",
      "type": "function"
    },
    {
      "inputs": [
        {
          "internalType": "address",
          "name": "owner",
          "type": "address"
        }
      ],
      "name": "maxWithdraw",
      "outputs": [
        {
          "internalType": "uint256",
          "name": "",
          "type": "uint256"
        }
      ],
      "stateMutability": "view",
      "type": "function"
    },
    {
      "inputs": [
        {
          "internalType": "uint256",
          "name": "shares",
          "type": "uint256"
        },
        {
          "internalType": "address",
          "name": "receiver",
          "type": "address"
        }
      ],
      "name": "mint",
      "outputs": [
        {
          "internalType": "uint256",
          "name": "",
          "type": "uint256"
        }
      ],
      "stateMutability": "nonpayable",
      "type": "function"
    },
    {
      "inputs": [],
      "name": "name",
      "outputs": [
        {
          "internalType": "string",
          "name": "",
          "type": "string"
        }
      ],
      "stateMutability": "view",
      "type": "function"
    },
    {
      "inputs": [],
      "name": "owner",
      "outputs": [
        {
          "internalType": "address",
          "name": "",
          "type": "address"
        }
      ],
      "stateMutability": "view",
      "type": "function"
    },
    {
      "inputs": [
        {
          "internalType": "uint256",
          "name": "assets",
          "type": "uint256"
        }
      ],
      "name": "previewDeposit",
      "outputs": [
        {
          "internalType": "uint256",
          "name": "",
          "type": "uint256"
        }
      ],
      "stateMutability": "view",
      "type": "function"
    },
    {
      "inputs": [
        {
          "internalType": "uint256",
          "name": "shares",
          "type": "uint256"
        }
      ],
      "name": "previewMint",
      "outputs": [
        {
          "internalType": "uint256",
          "name": "",
          "type": "uint256"
        }
      ],
      "stateMutability": "view",
      "type": "function"
    },
    {
      "inputs": [
        {
          "internalType": "uint256",
          "name": "shares",
          "type": "uint256"
        }
      ],
      "name": "previewRedeem",
      "outputs": [
        {
          "internalType": "uint256",
          "name": "",
          "type": "uint256"
        }
      ],
      "stateMutability": "view",
      "type": "function"
    },
    {
      "inputs": [
        {
          "internalType": "uint256",
          "name": "assets",
          "type": "uint256"
        }
      ],
      "name": "previewWithdraw",
      "outputs": [
        {
          "internalType": "uint256",
          "name": "",
          "type": "uint256"
        }
      ],
      "stateMutability": "view",
      "type": "function"
    },
    {
      "inputs": [
        {
          "internalType": "address",
          "name": "_implementation",
          "type": "address"
        }
      ],
      "name": "proposeStrat",
      "outputs": [],
      "stateMutability": "nonpayable",
      "type": "function"
    },
    {
      "inputs": [
        {
          "internalType": "uint256",
          "name": "shares",
          "type": "uint256"
        },
        {
          "internalType": "address",
          "name": "receiver",
          "type": "address"
        },
        {
          "internalType": "address",
          "name": "owner",
          "type": "address"
        }
      ],
      "name": "redeem",
      "outputs": [
        {
          "internalType": "uint256",
          "name": "",
          "type": "uint256"
        }
      ],
      "stateMutability": "nonpayable",
      "type": "function"
    },
    {
      "inputs": [],
      "name": "renounceOwnership",
      "outputs": [],
      "stateMutability": "nonpayable",
      "type": "function"
    },
    {
      "inputs": [
        {
          "internalType": "uint256",
          "name": "totalTvlCap_",
          "type": "uint256"
        }
      ],
      "name": "setTotalTvlCap",
      "outputs": [],
      "stateMutability": "nonpayable",
      "type": "function"
    },
    {
      "inputs": [
        {
          "internalType": "address",
          "name": "user_",
          "type": "address"
        },
        {
          "internalType": "uint256",
          "name": "userTvlCap_",
          "type": "uint256"
        }
      ],
      "name": "setUserTvlCap",
      "outputs": [],
      "stateMutability": "nonpayable",
      "type": "function"
    },
    {
      "inputs": [],
      "name": "stratCandidate",
      "outputs": [
        {
          "internalType": "address",
          "name": "implementation",
          "type": "address"
        },
        {
          "internalType": "uint256",
          "name": "proposedTime",
          "type": "uint256"
        }
      ],
      "stateMutability": "view",
      "type": "function"
    },
    {
      "inputs": [],
      "name": "strategy",
      "outputs": [
        {
          "internalType": "contract IStrategy",
          "name": "",
          "type": "address"
        }
      ],
      "stateMutability": "view",
      "type": "function"
    },
    {
      "inputs": [],
      "name": "symbol",
      "outputs": [
        {
          "internalType": "string",
          "name": "",
          "type": "string"
        }
      ],
      "stateMutability": "view",
      "type": "function"
    },
    {
      "inputs": [],
      "name": "totalAssets",
      "outputs": [
        {
          "internalType": "uint256",
          "name": "",
          "type": "uint256"
        }
      ],
      "stateMutability": "view",
      "type": "function"
    },
    {
      "inputs": [],
      "name": "totalSupply",
      "outputs": [
        {
          "internalType": "uint256",
          "name": "",
          "type": "uint256"
        }
      ],
      "stateMutability": "view",
      "type": "function"
    },
    {
      "inputs": [],
      "name": "totalTvlCap",
      "outputs": [
        {
          "internalType": "uint256",
          "name": "",
          "type": "uint256"
        }
      ],
      "stateMutability": "view",
      "type": "function"
    },
    {
      "inputs": [
        {
          "internalType": "address",
          "name": "to",
          "type": "address"
        },
        {
          "internalType": "uint256",
          "name": "amount",
          "type": "uint256"
        }
      ],
      "name": "transfer",
      "outputs": [
        {
          "internalType": "bool",
          "name": "",
          "type": "bool"
        }
      ],
      "stateMutability": "nonpayable",
      "type": "function"
    },
    {
      "inputs": [
        {
          "internalType": "address",
          "name": "from",
          "type": "address"
        },
        {
          "internalType": "address",
          "name": "to",
          "type": "address"
        },
        {
          "internalType": "uint256",
          "name": "amount",
          "type": "uint256"
        }
      ],
      "name": "transferFrom",
      "outputs": [
        {
          "internalType": "bool",
          "name": "",
          "type": "bool"
        }
      ],
      "stateMutability": "nonpayable",
      "type": "function"
    },
    {
      "inputs": [
        {
          "internalType": "address",
          "name": "newOwner",
          "type": "address"
        }
      ],
      "name": "transferOwnership",
      "outputs": [],
      "stateMutability": "nonpayable",
      "type": "function"
    },
    {
      "inputs": [],
      "name": "upgradeStrat",
      "outputs": [],
      "stateMutability": "nonpayable",
      "type": "function"
    },
    {
      "inputs": [
        {
          "internalType": "address",
          "name": "",
          "type": "address"
        }
      ],
      "name": "userTvlCap",
      "outputs": [
        {
          "internalType": "uint256",
          "name": "",
          "type": "uint256"
        }
      ],
      "stateMutability": "view",
      "type": "function"
    },
    {
      "inputs": [
        {
          "internalType": "uint256",
          "name": "assets",
          "type": "uint256"
        },
        {
          "internalType": "address",
          "name": "receiver",
          "type": "address"
        },
        {
          "internalType": "address",
          "name": "owner",
          "type": "address"
        }
      ],
      "name": "withdraw",
      "outputs": [
        {
          "internalType": "uint256",
          "name": "",
          "type": "uint256"
        }
      ],
      "stateMutability": "nonpayable",
      "type": "function"
    }
  ],
  "bytecode": {
    "object": "0x60e06040523480156200001157600080fd5b5060405162002b5238038062002b528339810160408190526200003491620002c4565b848484848484848460036200004a8382620003f0565b506004620000598282620003f0565b5050506000806200007083620000c060201b60201c565b91509150816200008257601262000084565b805b60ff1660a05250506001600160a01b0316608052620000a333620001a5565b600160065560c091909152600b5550620004f49650505050505050565b60408051600481526024810182526020810180516001600160e01b031663313ce56760e01b17905290516000918291829182916001600160a01b038716916200010991620004bc565b600060405180830381855afa9150503d806000811462000146576040519150601f19603f3d011682016040523d82523d6000602084013e6200014b565b606091505b50915091508180156200016057506020815110155b1562000198576000818060200190518101906200017e9190620004da565b905060ff811162000196576001969095509350505050565b505b5060009485945092505050565b600580546001600160a01b038381166001600160a01b0319831681179093556040519116919082907f8be0079c531659141344cd1fd0a4f28419497f9722a3daafe3b4186f6b6457e090600090a35050565b634e487b7160e01b600052604160045260246000fd5b60005b838110156200022a57818101518382015260200162000210565b50506000910152565b600082601f8301126200024557600080fd5b81516001600160401b0380821115620002625762000262620001f7565b604051601f8301601f19908116603f011681019082821181831017156200028d576200028d620001f7565b81604052838152866020858801011115620002a757600080fd5b620002ba8460208301602089016200020d565b9695505050505050565b600080600080600060a08688031215620002dd57600080fd5b85516001600160a01b0381168114620002f557600080fd5b60208701519095506001600160401b03808211156200031357600080fd5b6200032189838a0162000233565b955060408801519150808211156200033857600080fd5b50620003478882890162000233565b606088015160809098015196999598509695949350505050565b600181811c908216806200037657607f821691505b6020821081036200039757634e487b7160e01b600052602260045260246000fd5b50919050565b601f821115620003eb57600081815260208120601f850160051c81016020861015620003c65750805b601f850160051c820191505b81811015620003e757828155600101620003d2565b5050505b505050565b81516001600160401b038111156200040c576200040c620001f7565b62000424816200041d845462000361565b846200039d565b602080601f8311600181146200045c5760008415620004435750858301515b600019600386901b1c1916600185901b178555620003e7565b600085815260208120601f198616915b828110156200048d578886015182559484019460019091019084016200046c565b5085821015620004ac5787850151600019600388901b60f8161c191681555b5050505050600190811b01905550565b60008251620004d08184602087016200020d565b9190910192915050565b600060208284031215620004ed57600080fd5b5051919050565b60805160a05160c05161260b62000547600039600081816105d501526113760152600061035a015260008181610386015281816112350152818161192601528181611a400152611ccb015261260b6000f3fe608060405234801561001057600080fd5b506004361061025e5760003560e01c80638da5cb5b11610146578063c63d75b6116100c3578063dd62ed3e11610087578063dd62ed3e146105aa578063def68a9c146105bd578063e2d1e75c146105d0578063e6685244146105f7578063ef8b30f714610551578063f2fde38b146105ff57600080fd5b8063c63d75b61461053e578063c6e6f59214610551578063ce96cb7714610564578063d428927914610577578063d905777e1461059757600080fd5b8063a9059cbb1161010a578063a9059cbb146104df578063b3d7f6b9146104f2578063b460af9414610505578063b85d9c2514610518578063ba0876521461052b57600080fd5b80638da5cb5b1461048d57806394bf804d1461049e57806395d89b41146104b1578063a457c2d7146104b9578063a8c62e76146104cc57600080fd5b806338d52e0f116101df57806351b0fc1c116101a357806351b0fc1c146103ed5780635b12ff9b146104005780636e553f651461041357806370a0823114610426578063715018a61461044f57806376dfabb81461045757600080fd5b806338d52e0f1461038457806339509351146103be578063402d267d146103d157806340bd2f32146103e45780634cdad5061461029357600080fd5b806318160ddd1161022657806318160ddd146102dc57806319ab453c146102e457806323b872dd146102f9578063296597881461030c578063313ce5671461035357600080fd5b806301e1d1141461026357806306fdde031461027e57806307a2d13a14610293578063095ea7b3146102a65780630a28a477146102c9575b600080fd5b61026b610612565b6040519081526020015b60405180910390f35b610286610685565b6040516102759190612334565b61026b6102a1366004612367565b610717565b6102b96102b4366004612395565b61072a565b6040519015158152602001610275565b61026b6102d7366004612367565b610742565b60025461026b565b6102f76102f23660046123c1565b61074f565b005b6102b96103073660046123de565b610879565b6040805180820182526000808252602091820152815180830183526008546001600160a01b0316808252600954918301918252835190815290519181019190915201610275565b60405160ff7f0000000000000000000000000000000000000000000000000000000000000000168152602001610275565b7f00000000000000000000000000000000000000000000000000000000000000005b6040516001600160a01b039091168152602001610275565b6102b96103cc366004612395565b61089f565b61026b6103df3660046123c1565b6108c1565b61026b600b5481565b6102f76103fb366004612367565b6109db565b6102f761040e3660046123c1565b610a73565b61026b61042136600461241f565b610c56565b61026b6104343660046123c1565b6001600160a01b031660009081526020819052604090205490565b6102f7610cc9565b60085460095461046e916001600160a01b03169082565b604080516001600160a01b039093168352602083019190915201610275565b6005546001600160a01b03166103a6565b61026b6104ac36600461241f565b610cdd565b610286610d50565b6102b96104c7366004612395565b610d5f565b600a546103a6906001600160a01b031681565b6102b96104ed366004612395565b610de5565b61026b610500366004612367565b610df3565b61026b61051336600461244f565b610e00565b6102f7610526366004612395565b610e7c565b61026b61053936600461244f565b610f84565b61026b61054c3660046123c1565b610ff8565b61026b61055f366004612367565b6111b1565b61026b6105723660046123c1565b6111be565b61026b6105853660046123c1565b600c6020526000908152604090205481565b61026b6105a53660046123c1565b6111e2565b61026b6105b8366004612491565b611200565b6102f76105cb3660046123c1565b61122b565b61026b7f000000000000000000000000000000000000000000000000000000000000000081565b6102f761131e565b6102f761060d3660046123c1565b6114a2565b600a546040805163722713f760e01b815290516000926001600160a01b03169163722713f79160048083019260209291908290030181865afa15801561065c573d6000803e3d6000fd5b505050506040513d601f19601f8201168201806040525081019061068091906124bf565b905090565b606060038054610694906124d8565b80601f01602080910402602001604051908101604052809291908181526020018280546106c0906124d8565b801561070d5780601f106106e25761010080835404028352916020019161070d565b820191906000526020600020905b8154815290600101906020018083116106f057829003601f168201915b5050505050905090565b6000610724826000611518565b92915050565b60003361073881858561154b565b5060019392505050565b600061072482600161166f565b600754610100900460ff161580801561076f5750600754600160ff909116105b806107895750303b158015610789575060075460ff166001145b6107f15760405162461bcd60e51b815260206004820152602e60248201527f496e697469616c697a61626c653a20636f6e747261637420697320616c72656160448201526d191e481a5b9a5d1a585b1a5e995960921b60648201526084015b60405180910390fd5b6007805460ff191660011790558015610814576007805461ff0019166101001790555b600a80546001600160a01b0319166001600160a01b0384161790558015610875576007805461ff0019169055604051600181527f7f26b83ff96e1f2b6a682f133852f6798a09c465da95921460cefb38474024989060200160405180910390a15b5050565b6000336108878582856116a1565b61089285858561171b565b60019150505b9392505050565b6000336107388185856108b28383611200565b6108bc9190612528565b61154b565b600a5460408051635c975abb60e01b815290516000926001600160a01b031691635c975abb9160048083019260209291908290030181865afa15801561090b573d6000803e3d6000fd5b505050506040513d601f19601f8201168201806040525081019061092f919061253b565b1561093c57506000919050565b6000610946610612565b600b54610953919061255d565b6001600160a01b0384166000908152600c60205260408120549192508161097c576000196109c1565b61099e610500866001600160a01b031660009081526020819052604090205490565b6001600160a01b0386166000908152600c60205260409020546109c1919061255d565b90508083106109d057806109d2565b825b95945050505050565b6109e36118bf565b80600b5403610a235760405162461bcd60e51b815260206004820152600c60248201526b053616d652054564c206361760a41b60448201526064016107e8565b600554600b5460408051918252602082018490526001600160a01b03909216917f62be5807a2922ba46a7c1a6af65af203ab5f9840c6d0b9f469a7689fdfb58eec910160405180910390a2600b55565b6005546001600160a01b0316331480610aff5750600a546040805163481c6a7560e01b8152905133926001600160a01b03169163481c6a759160048083019260209291908290030181865afa158015610ad0573d6000803e3d6000fd5b505050506040513d601f19601f82011682018060405250810190610af49190612570565b6001600160a01b0316145b610b415760405162461bcd60e51b815260206004820152601360248201527221286f776e6572207c7c206d616e616765722960681b60448201526064016107e8565b806001600160a01b031663fbfa77cf6040518163ffffffff1660e01b8152600401602060405180830381865afa158015610b7f573d6000803e3d6000fd5b505050506040513d601f19601f82011682018060405250810190610ba39190612570565b6001600160a01b0316306001600160a01b031614610bef5760405162461bcd60e51b8152602060048201526009602482015268085c1c9bdc1bdcd85b60ba1b60448201526064016107e8565b6040805180820182526001600160a01b038316808252426020928301819052600880546001600160a01b0319168317905560095591519182527f1aae2ec5647db56da2d513de40528ba3565c6057525637050660c4323bbac7df910160405180910390a150565b6000610c61826108c1565b831115610cb05760405162461bcd60e51b815260206004820152601e60248201527f455243343632363a206465706f736974206d6f7265207468616e206d6178000060448201526064016107e8565b6000610cbb846111b1565b905061089833848684611919565b610cd16118bf565b610cdb60006119bc565b565b6000610ce882610ff8565b831115610d375760405162461bcd60e51b815260206004820152601b60248201527f455243343632363a206d696e74206d6f7265207468616e206d6178000000000060448201526064016107e8565b6000610d4284610df3565b905061089833848387611919565b606060048054610694906124d8565b60003381610d6d8286611200565b905083811015610dcd5760405162461bcd60e51b815260206004820152602560248201527f45524332303a2064656372656173656420616c6c6f77616e63652062656c6f77604482015264207a65726f60d81b60648201526084016107e8565b610dda828686840361154b565b506001949350505050565b60003361073881858561171b565b6000610724826001611518565b6000610e0b826111be565b841115610e5a5760405162461bcd60e51b815260206004820152601f60248201527f455243343632363a207769746864726177206d6f7265207468616e206d61780060448201526064016107e8565b6000610e6585610742565b9050610e743385858885611a0e565b949350505050565b610e846118bf565b6001600160a01b0382166000908152600c6020526040902054819003610edc5760405162461bcd60e51b815260206004820152600d60248201526c053616d6520557365722063617609c1b60448201526064016107e8565b816001600160a01b0316610ef86005546001600160a01b031690565b6001600160a01b03167fc1fa2a9952be0d43691fcfb2f79585c61f18978d7be1af78c4882302c3f8d296600c6000866001600160a01b03166001600160a01b031681526020019081526020016000205484604051610f60929190918252602082015260400190565b60405180910390a36001600160a01b039091166000908152600c6020526040902055565b6000610f8f826111e2565b841115610fde5760405162461bcd60e51b815260206004820152601d60248201527f455243343632363a2072656465656d206d6f7265207468616e206d617800000060448201526064016107e8565b6000610fe985610717565b9050610e743385858489611a0e565b600a5460408051635c975abb60e01b815290516000926001600160a01b031691635c975abb9160048083019260209291908290030181865afa158015611042573d6000803e3d6000fd5b505050506040513d601f19601f82011682018060405250810190611066919061253b565b1561107357506000919050565b6000306001600160a01b031663c6e6f592306001600160a01b03166301e1d1146040518163ffffffff1660e01b8152600401602060405180830381865afa1580156110c2573d6000803e3d6000fd5b505050506040513d601f19601f820116820180604052508101906110e691906124bf565b600b546110f3919061255d565b6040518263ffffffff1660e01b815260040161111191815260200190565b602060405180830381865afa15801561112e573d6000803e3d6000fd5b505050506040513d601f19601f8201168201806040525081019061115291906124bf565b6001600160a01b0384166000908152600c60205260408120549192508161117b576000196109c1565b6001600160a01b03851660009081526020818152604080832054600c909252909120546111a7906111b1565b6109c1919061255d565b600061072482600061166f565b6001600160a01b038116600090815260208190526040812054610724906000611518565b6001600160a01b038116600090815260208190526040812054610724565b6001600160a01b03918216600090815260016020908152604080832093909416825291909152205490565b6112336118bf565b7f00000000000000000000000000000000000000000000000000000000000000006001600160a01b0316816001600160a01b03160361129d5760405162461bcd60e51b815260206004820152600660248201526510ba37b5b2b760d11b60448201526064016107e8565b6040516370a0823160e01b81523060048201526000906001600160a01b038316906370a0823190602401602060405180830381865afa1580156112e4573d6000803e3d6000fd5b505050506040513d601f19601f8201168201806040525081019061130891906124bf565b90506108756001600160a01b0383163383611c53565b6113266118bf565b6008546001600160a01b031661136b5760405162461bcd60e51b815260206004820152600a6024820152692163616e64696461746560b01b60448201526064016107e8565b600954429061139a907f0000000000000000000000000000000000000000000000000000000000000000611cbb565b106113d05760405162461bcd60e51b81526020600482015260066024820152652164656c617960d01b60448201526064016107e8565b6008546040516001600160a01b0390911681527f7f37d440e85aba7fbf641c4bda5ca4ef669a80bffaacde2aa8d9feb1b048c82c9060200160405180910390a1600a8054600880546001600160a01b03198084166001600160a01b038381169190911790955516905564012a05f2006009556040805163fb61778760e01b815290519290911691829163fb61778791600480830192600092919082900301818387803b15801561147f57600080fd5b505af1158015611493573d6000803e3d6000fd5b5050505061149f611cc7565b50565b6114aa6118bf565b6001600160a01b03811661150f5760405162461bcd60e51b815260206004820152602660248201527f4f776e61626c653a206e6577206f776e657220697320746865207a65726f206160448201526564647265737360d01b60648201526084016107e8565b61149f816119bc565b60008061152460025490565b9050801561154557611540611537610612565b85908386611ddc565b610e74565b83610e74565b6001600160a01b0383166115ad5760405162461bcd60e51b8152602060048201526024808201527f45524332303a20617070726f76652066726f6d20746865207a65726f206164646044820152637265737360e01b60648201526084016107e8565b6001600160a01b03821661160e5760405162461bcd60e51b815260206004820152602260248201527f45524332303a20617070726f766520746f20746865207a65726f206164647265604482015261737360f01b60648201526084016107e8565b6001600160a01b0383811660008181526001602090815260408083209487168084529482529182902085905590518481527f8c5be1e5ebec7d5bd14f71427d1e84f3dd0314c0f7b2291e5b200ac8c7c3b925910160405180910390a3505050565b60008061167b60025490565b9050831580611688575080155b6115455761154081611698610612565b86919086611ddc565b60006116ad8484611200565b9050600019811461171557818110156117085760405162461bcd60e51b815260206004820152601d60248201527f45524332303a20696e73756666696369656e7420616c6c6f77616e636500000060448201526064016107e8565b611715848484840361154b565b50505050565b6001600160a01b03831661177f5760405162461bcd60e51b815260206004820152602560248201527f45524332303a207472616e736665722066726f6d20746865207a65726f206164604482015264647265737360d81b60648201526084016107e8565b6001600160a01b0382166117e15760405162461bcd60e51b815260206004820152602360248201527f45524332303a207472616e7366657220746f20746865207a65726f206164647260448201526265737360e81b60648201526084016107e8565b6001600160a01b038316600090815260208190526040902054818110156118595760405162461bcd60e51b815260206004820152602660248201527f45524332303a207472616e7366657220616d6f756e7420657863656564732062604482015265616c616e636560d01b60648201526084016107e8565b6001600160a01b03848116600081815260208181526040808320878703905593871680835291849020805487019055925185815290927fddf252ad1be2c89b69c2b068fc378daa952ba7f163c4a11628f55a4df523b3ef910160405180910390a3611715565b6005546001600160a01b03163314610cdb5760405162461bcd60e51b815260206004820181905260248201527f4f776e61626c653a2063616c6c6572206973206e6f7420746865206f776e657260448201526064016107e8565b61194e6001600160a01b037f000000000000000000000000000000000000000000000000000000000000000016853085611e37565b611956611cc7565b6119608382611e6f565b826001600160a01b0316846001600160a01b03167fdcbc1c05240f31ff3ad067ef1ee35ce4997762752e3a095284754544f4c709d784846040516119ae929190918252602082015260400190565b60405180910390a350505050565b600580546001600160a01b038381166001600160a01b0319831681179093556040519116919082907f8be0079c531659141344cd1fd0a4f28419497f9722a3daafe3b4186f6b6457e090600090a35050565b826001600160a01b0316856001600160a01b031614611a3257611a328386836116a1565b611a3c8382611f2e565b60007f00000000000000000000000000000000000000000000000000000000000000006040516370a0823160e01b81523060048201529091506000906001600160a01b038316906370a0823190602401602060405180830381865afa158015611aa9573d6000803e3d6000fd5b505050506040513d601f19601f82011682018060405250810190611acd91906124bf565b905083811015611bd6576000611ae38583612060565b600a54604051632e1a7d4d60e01b8152600481018390529192506001600160a01b031690632e1a7d4d90602401600060405180830381600087803b158015611b2a57600080fd5b505af1158015611b3e573d6000803e3d6000fd5b50506040516370a0823160e01b8152306004820152600092506001600160a01b03861691506370a0823190602401602060405180830381865afa158015611b89573d6000803e3d6000fd5b505050506040513d601f19601f82011682018060405250810190611bad91906124bf565b90506000611bbb8285612060565b905082811015611bd257611bcf8482611cbb565b96505b5050505b611bea6001600160a01b0383168786611c53565b846001600160a01b0316866001600160a01b0316886001600160a01b03167ffbde797d201c681b91056529119e0b02407c7bb96a4a2c75c01fc9667232c8db8787604051611c42929190918252602082015260400190565b60405180910390a450505050505050565b6040516001600160a01b038316602482015260448101829052611cb690849063a9059cbb60e01b906064015b60408051601f198184030181529190526020810180516001600160e01b03166001600160e01b03199093169290921790915261206c565b505050565b60006108988284612528565b60007f0000000000000000000000000000000000000000000000000000000000000000600a546040516370a0823160e01b8152306004820152919250611d71916001600160a01b03918216918416906370a0823190602401602060405180830381865afa158015611d3c573d6000803e3d6000fd5b505050506040513d601f19601f82011682018060405250810190611d6091906124bf565b6001600160a01b0384169190611c53565b600a60009054906101000a90046001600160a01b03166001600160a01b031663d0e30db06040518163ffffffff1660e01b8152600401600060405180830381600087803b158015611dc157600080fd5b505af1158015611dd5573d6000803e3d6000fd5b5050505050565b600080611dea86868661213e565b90506001836002811115611e0057611e0061258d565b148015611e1d575060008480611e1857611e186125a3565b868809115b156109d257611e2d600182612528565b9695505050505050565b6040516001600160a01b03808516602483015283166044820152606481018290526117159085906323b872dd60e01b90608401611c7f565b6001600160a01b038216611ec55760405162461bcd60e51b815260206004820152601f60248201527f45524332303a206d696e7420746f20746865207a65726f20616464726573730060448201526064016107e8565b8060026000828254611ed79190612528565b90915550506001600160a01b038216600081815260208181526040808320805486019055518481527fddf252ad1be2c89b69c2b068fc378daa952ba7f163c4a11628f55a4df523b3ef910160405180910390a35050565b6001600160a01b038216611f8e5760405162461bcd60e51b815260206004820152602160248201527f45524332303a206275726e2066726f6d20746865207a65726f206164647265736044820152607360f81b60648201526084016107e8565b6001600160a01b038216600090815260208190526040902054818110156120025760405162461bcd60e51b815260206004820152602260248201527f45524332303a206275726e20616d6f756e7420657863656564732062616c616e604482015261636560f01b60648201526084016107e8565b6001600160a01b0383166000818152602081815260408083208686039055600280548790039055518581529192917fddf252ad1be2c89b69c2b068fc378daa952ba7f163c4a11628f55a4df523b3ef910160405180910390a3505050565b6000610898828461255d565b60006120c1826040518060400160405280602081526020017f5361666545524332303a206c6f772d6c6576656c2063616c6c206661696c6564815250856001600160a01b03166121ed9092919063ffffffff16565b805190915015611cb657808060200190518101906120df919061253b565b611cb65760405162461bcd60e51b815260206004820152602a60248201527f5361666545524332303a204552433230206f7065726174696f6e20646964206e6044820152691bdd081cdd58d8d9595960b21b60648201526084016107e8565b60008080600019858709858702925082811083820303915050806000036121785783828161216e5761216e6125a3565b0492505050610898565b80841161218457600080fd5b60008486880960026001871981018816978890046003810283188082028403028082028403028082028403028082028403028082028403029081029092039091026000889003889004909101858311909403939093029303949094049190911702949350505050565b6060610e74848460008585600080866001600160a01b0316858760405161221491906125b9565b60006040518083038185875af1925050503d8060008114612251576040519150601f19603f3d011682016040523d82523d6000602084013e612256565b606091505b509150915061226787838387612272565b979650505050505050565b606083156122e15782516000036122da576001600160a01b0385163b6122da5760405162461bcd60e51b815260206004820152601d60248201527f416464726573733a2063616c6c20746f206e6f6e2d636f6e747261637400000060448201526064016107e8565b5081610e74565b610e7483838151156122f65781518083602001fd5b8060405162461bcd60e51b81526004016107e89190612334565b60005b8381101561232b578181015183820152602001612313565b50506000910152565b6020815260008251806020840152612353816040850160208701612310565b601f01601f19169190910160400192915050565b60006020828403121561237957600080fd5b5035919050565b6001600160a01b038116811461149f57600080fd5b600080604083850312156123a857600080fd5b82356123b381612380565b946020939093013593505050565b6000602082840312156123d357600080fd5b813561089881612380565b6000806000606084860312156123f357600080fd5b83356123fe81612380565b9250602084013561240e81612380565b929592945050506040919091013590565b6000806040838503121561243257600080fd5b82359150602083013561244481612380565b809150509250929050565b60008060006060848603121561246457600080fd5b83359250602084013561247681612380565b9150604084013561248681612380565b809150509250925092565b600080604083850312156124a457600080fd5b82356124af81612380565b9150602083013561244481612380565b6000602082840312156124d157600080fd5b5051919050565b600181811c908216806124ec57607f821691505b60208210810361250c57634e487b7160e01b600052602260045260246000fd5b50919050565b634e487b7160e01b600052601160045260246000fd5b8082018082111561072457610724612512565b60006020828403121561254d57600080fd5b8151801515811461089857600080fd5b8181038181111561072457610724612512565b60006020828403121561258257600080fd5b815161089881612380565b634e487b7160e01b600052602160045260246000fd5b634e487b7160e01b600052601260045260246000fd5b600082516125cb818460208701612310565b919091019291505056fea26469706673582212202997466cdcded3e3e4358fb953b19190d2d762afcc6ffc127dc3251f97b585b864736f6c63430008130033",
    "linkReferences": {}
  },
  "methodIdentifiers": {
    "allowance(address,address)": "dd62ed3e",
    "approvalDelay()": "e2d1e75c",
    "approve(address,uint256)": "095ea7b3",
    "asset()": "38d52e0f",
    "balanceOf(address)": "70a08231",
    "convertToAssets(uint256)": "07a2d13a",
    "convertToShares(uint256)": "c6e6f592",
    "decimals()": "313ce567",
    "decreaseAllowance(address,uint256)": "a457c2d7",
    "deposit(uint256,address)": "6e553f65",
    "getStratProposal()": "29659788",
    "inCaseTokensGetStuck(address)": "def68a9c",
    "increaseAllowance(address,uint256)": "39509351",
    "init(address)": "19ab453c",
    "maxDeposit(address)": "402d267d",
    "maxMint(address)": "c63d75b6",
    "maxRedeem(address)": "d905777e",
    "maxWithdraw(address)": "ce96cb77",
    "mint(uint256,address)": "94bf804d",
    "name()": "06fdde03",
    "owner()": "8da5cb5b",
    "previewDeposit(uint256)": "ef8b30f7",
    "previewMint(uint256)": "b3d7f6b9",
    "previewRedeem(uint256)": "4cdad506",
    "previewWithdraw(uint256)": "0a28a477",
    "proposeStrat(address)": "5b12ff9b",
    "redeem(uint256,address,address)": "ba087652",
    "renounceOwnership()": "715018a6",
    "setTotalTvlCap(uint256)": "51b0fc1c",
    "setUserTvlCap(address,uint256)": "b85d9c25",
    "stratCandidate()": "76dfabb8",
    "strategy()": "a8c62e76",
    "symbol()": "95d89b41",
    "totalAssets()": "01e1d114",
    "totalSupply()": "18160ddd",
    "totalTvlCap()": "40bd2f32",
    "transfer(address,uint256)": "a9059cbb",
    "transferFrom(address,address,uint256)": "23b872dd",
    "transferOwnership(address)": "f2fde38b",
    "upgradeStrat()": "e6685244",
    "userTvlCap(address)": "d4289279",
    "withdraw(uint256,address,address)": "b460af94"
  },
  "id": 42
}