{
  "abi": [
    {
      "inputs": [
        {
          "components": [
            {
              "internalType": "address",
              "name": "stake",
              "type": "address"
            },
            {
              "internalType": "uint256",
              "name": "poolId",
              "type": "uint256"
            },
            {
              "internalType": "address",
              "name": "chef",
              "type": "address"
            },
            {
              "internalType": "address[]",
              "name": "rewardToLp0Route",
              "type": "address[]"
            },
            {
              "internalType": "address[]",
              "name": "rewardToLp1Route",
              "type": "address[]"
            },
            {
              "internalType": "address",
              "name": "baseCurrency",
              "type": "address"
            },
            {
              "internalType": "address",
              "name": "factory",
              "type": "address"
            }
          ],
          "internalType": "struct EarthLpStakingParams",
          "name": "_earthLpStakingParams",
          "type": "tuple"
        },
        {
          "components": [
            {
              "internalType": "address",
              "name": "vault",
              "type": "address"
            },
            {
              "internalType": "address",
              "name": "router",
              "type": "address"
            }
          ],
          "internalType": "struct CommonAddresses",
          "name": "_commonAddresses",
          "type": "tuple"
        }
      ],
      "stateMutability": "nonpayable",
      "type": "constructor"
    },
    {
      "anonymous": false,
      "inputs": [
        {
          "indexed": false,
          "internalType": "uint256",
          "name": "tvl",
          "type": "uint256"
        },
        {
          "indexed": false,
          "internalType": "uint256",
          "name": "amount",
          "type": "uint256"
        }
      ],
      "name": "Deposit",
      "type": "event"
    },
    {
      "anonymous": false,
      "inputs": [
        {
          "indexed": true,
          "internalType": "address",
          "name": "previousOwner",
          "type": "address"
        },
        {
          "indexed": true,
          "internalType": "address",
          "name": "newOwner",
          "type": "address"
        }
      ],
      "name": "OwnershipTransferred",
      "type": "event"
    },
    {
      "anonymous": false,
      "inputs": [
        {
          "indexed": false,
          "internalType": "address",
          "name": "account",
          "type": "address"
        }
      ],
      "name": "Paused",
      "type": "event"
    },
    {
      "anonymous": false,
      "inputs": [
        {
          "indexed": false,
          "internalType": "address",
          "name": "manager",
          "type": "address"
        }
      ],
      "name": "SetManager",
      "type": "event"
    },
    {
      "anonymous": false,
      "inputs": [
        {
          "indexed": false,
          "internalType": "address",
          "name": "unirouter",
          "type": "address"
        }
      ],
      "name": "SetRouter",
      "type": "event"
    },
    {
      "anonymous": false,
      "inputs": [
        {
          "indexed": false,
          "internalType": "address",
          "name": "vault",
          "type": "address"
        }
      ],
      "name": "SetVault",
      "type": "event"
    },
    {
      "anonymous": false,
      "inputs": [
        {
          "indexed": true,
          "internalType": "address",
          "name": "harvester",
          "type": "address"
        },
        {
          "indexed": false,
          "internalType": "uint256",
          "name": "stakeHarvested",
          "type": "uint256"
        },
        {
          "indexed": false,
          "internalType": "uint256",
          "name": "tvl",
          "type": "uint256"
        }
      ],
      "name": "StratHarvest",
      "type": "event"
    },
    {
      "anonymous": false,
      "inputs": [
        {
          "indexed": false,
          "internalType": "address",
          "name": "account",
          "type": "address"
        }
      ],
      "name": "Unpaused",
      "type": "event"
    },
    {
      "anonymous": false,
      "inputs": [
        {
          "indexed": false,
          "internalType": "uint256",
          "name": "tvl",
          "type": "uint256"
        },
        {
          "indexed": false,
          "internalType": "uint256",
          "name": "amount",
          "type": "uint256"
        }
      ],
      "name": "Withdraw",
      "type": "event"
    },
    {
      "inputs": [],
      "name": "_calculatFixedReturnLp",
      "outputs": [
        {
          "internalType": "uint256",
          "name": "",
          "type": "uint256"
        }
      ],
      "stateMutability": "view",
      "type": "function"
    },
    {
      "inputs": [
        {
          "internalType": "address",
          "name": "tokenA",
          "type": "address"
        },
        {
          "internalType": "address",
          "name": "tokenB",
          "type": "address"
        }
      ],
      "name": "arrangeTokens",
      "outputs": [
        {
          "internalType": "address",
          "name": "",
          "type": "address"
        },
        {
          "internalType": "address",
          "name": "",
          "type": "address"
        }
      ],
      "stateMutability": "pure",
      "type": "function"
    },
    {
      "inputs": [
        {
          "internalType": "uint256",
          "name": "",
          "type": "uint256"
        }
      ],
      "name": "assetStrategies",
      "outputs": [
        {
          "internalType": "address",
          "name": "",
          "type": "address"
        }
      ],
      "stateMutability": "view",
      "type": "function"
    },
    {
      "inputs": [
        {
          "internalType": "address",
          "name": "",
          "type": "address"
        }
      ],
      "name": "assetStrategyMap",
      "outputs": [
        {
          "internalType": "uint256",
          "name": "stakedInNative",
          "type": "uint256"
        },
        {
          "internalType": "uint256",
          "name": "returnAmountNative",
          "type": "uint256"
        }
      ],
      "stateMutability": "view",
      "type": "function"
    },
    {
      "inputs": [],
      "name": "balanceOf",
      "outputs": [
        {
          "internalType": "uint256",
          "name": "",
          "type": "uint256"
        }
      ],
      "stateMutability": "view",
      "type": "function"
    },
    {
      "inputs": [],
      "name": "balanceOfPool",
      "outputs": [
        {
          "internalType": "uint256",
          "name": "",
          "type": "uint256"
        }
      ],
      "stateMutability": "view",
      "type": "function"
    },
    {
      "inputs": [],
      "name": "balanceOfStake",
      "outputs": [
        {
          "internalType": "uint256",
          "name": "",
          "type": "uint256"
        }
      ],
      "stateMutability": "view",
      "type": "function"
    },
    {
      "inputs": [],
      "name": "baseCurrency",
      "outputs": [
        {
          "internalType": "address",
          "name": "",
          "type": "address"
        }
      ],
      "stateMutability": "view",
      "type": "function"
    },
    {
      "inputs": [
        {
          "internalType": "address",
          "name": "lpToken",
          "type": "address"
        },
        {
          "internalType": "uint256",
          "name": "amount",
          "type": "uint256"
        }
      ],
      "name": "baseTokenToLpTokenConversion",
      "outputs": [
        {
          "internalType": "uint256",
          "name": "lpTokenAmount",
          "type": "uint256"
        }
      ],
      "stateMutability": "view",
      "type": "function"
    },
    {
      "inputs": [],
      "name": "beforeDeposit",
      "outputs": [],
      "stateMutability": "nonpayable",
      "type": "function"
    },
    {
      "inputs": [],
      "name": "chef",
      "outputs": [
        {
          "internalType": "address",
          "name": "",
          "type": "address"
        }
      ],
      "stateMutability": "view",
      "type": "function"
    },
    {
      "inputs": [],
      "name": "deposit",
      "outputs": [],
      "stateMutability": "nonpayable",
      "type": "function"
    },
    {
      "inputs": [],
      "name": "endEpoch",
      "outputs": [],
      "stateMutability": "nonpayable",
      "type": "function"
    },
    {
      "inputs": [],
      "name": "epochRunning",
      "outputs": [
        {
          "internalType": "bool",
          "name": "",
          "type": "bool"
        }
      ],
      "stateMutability": "view",
      "type": "function"
    },
    {
      "inputs": [],
      "name": "factory",
      "outputs": [
        {
          "internalType": "address",
          "name": "",
          "type": "address"
        }
      ],
      "stateMutability": "view",
      "type": "function"
    },
    {
      "inputs": [],
      "name": "harvest",
      "outputs": [],
      "stateMutability": "nonpayable",
      "type": "function"
    },
    {
      "inputs": [],
      "name": "lastHarvest",
      "outputs": [
        {
          "internalType": "uint256",
          "name": "",
          "type": "uint256"
        }
      ],
      "stateMutability": "view",
      "type": "function"
    },
    {
      "inputs": [],
      "name": "lpToken0",
      "outputs": [
        {
          "internalType": "address",
          "name": "",
          "type": "address"
        }
      ],
      "stateMutability": "view",
      "type": "function"
    },
    {
      "inputs": [],
      "name": "lpToken1",
      "outputs": [
        {
          "internalType": "address",
          "name": "",
          "type": "address"
        }
      ],
      "stateMutability": "view",
      "type": "function"
    },
    {
      "inputs": [],
      "name": "manager",
      "outputs": [
        {
          "internalType": "address",
          "name": "",
          "type": "address"
        }
      ],
      "stateMutability": "view",
      "type": "function"
    },
    {
      "inputs": [],
      "name": "managerHarvest",
      "outputs": [],
      "stateMutability": "nonpayable",
      "type": "function"
    },
    {
      "inputs": [],
      "name": "onlyManager",
      "outputs": [],
      "stateMutability": "view",
      "type": "function"
    },
    {
      "inputs": [],
      "name": "onlyVault",
      "outputs": [],
      "stateMutability": "view",
      "type": "function"
    },
    {
      "inputs": [],
      "name": "owner",
      "outputs": [
        {
          "internalType": "address",
          "name": "",
          "type": "address"
        }
      ],
      "stateMutability": "view",
      "type": "function"
    },
    {
      "inputs": [],
      "name": "panic",
      "outputs": [],
      "stateMutability": "nonpayable",
      "type": "function"
    },
    {
      "inputs": [],
      "name": "pause",
      "outputs": [],
      "stateMutability": "nonpayable",
      "type": "function"
    },
    {
      "inputs": [],
      "name": "paused",
      "outputs": [
        {
          "internalType": "bool",
          "name": "",
          "type": "bool"
        }
      ],
      "stateMutability": "view",
      "type": "function"
    },
    {
      "inputs": [],
      "name": "pendingRewardsFunctionName",
      "outputs": [
        {
          "internalType": "string",
          "name": "",
          "type": "string"
        }
      ],
      "stateMutability": "view",
      "type": "function"
    },
    {
      "inputs": [],
      "name": "poolId",
      "outputs": [
        {
          "internalType": "uint256",
          "name": "",
          "type": "uint256"
        }
      ],
      "stateMutability": "view",
      "type": "function"
    },
    {
      "inputs": [],
      "name": "renounceOwnership",
      "outputs": [],
      "stateMutability": "nonpayable",
      "type": "function"
    },
    {
      "inputs": [],
      "name": "retireStrat",
      "outputs": [],
      "stateMutability": "nonpayable",
      "type": "function"
    },
    {
      "inputs": [],
      "name": "reward",
      "outputs": [
        {
          "internalType": "address",
          "name": "",
          "type": "address"
        }
      ],
      "stateMutability": "view",
      "type": "function"
    },
    {
      "inputs": [],
      "name": "rewardToLp0",
      "outputs": [
        {
          "internalType": "address[]",
          "name": "",
          "type": "address[]"
        }
      ],
      "stateMutability": "view",
      "type": "function"
    },
    {
      "inputs": [
        {
          "internalType": "uint256",
          "name": "",
          "type": "uint256"
        }
      ],
      "name": "rewardToLp0Route",
      "outputs": [
        {
          "internalType": "address",
          "name": "",
          "type": "address"
        }
      ],
      "stateMutability": "view",
      "type": "function"
    },
    {
      "inputs": [],
      "name": "rewardToLp1",
      "outputs": [
        {
          "internalType": "address[]",
          "name": "",
          "type": "address[]"
        }
      ],
      "stateMutability": "view",
      "type": "function"
    },
    {
      "inputs": [
        {
          "internalType": "uint256",
          "name": "",
          "type": "uint256"
        }
      ],
      "name": "rewardToLp1Route",
      "outputs": [
        {
          "internalType": "address",
          "name": "",
          "type": "address"
        }
      ],
      "stateMutability": "view",
      "type": "function"
    },
    {
      "inputs": [],
      "name": "rewardsAvailable",
      "outputs": [
        {
          "internalType": "uint256",
          "name": "",
          "type": "uint256"
        }
      ],
      "stateMutability": "view",
      "type": "function"
    },
    {
      "inputs": [],
      "name": "router",
      "outputs": [
        {
          "internalType": "address",
          "name": "",
          "type": "address"
        }
      ],
      "stateMutability": "view",
      "type": "function"
    },
    {
      "inputs": [
        {
          "internalType": "address",
          "name": "_manager",
          "type": "address"
        }
      ],
      "name": "setManager",
      "outputs": [],
      "stateMutability": "nonpayable",
      "type": "function"
    },
    {
      "inputs": [
        {
          "internalType": "string",
          "name": "_pendingRewardsFunctionName",
          "type": "string"
        }
      ],
      "name": "setPendingRewardsFunctionName",
      "outputs": [],
      "stateMutability": "nonpayable",
      "type": "function"
    },
    {
      "inputs": [
        {
          "internalType": "address",
          "name": "_router",
          "type": "address"
        }
      ],
      "name": "setRouter",
      "outputs": [],
      "stateMutability": "nonpayable",
      "type": "function"
    },
    {
      "inputs": [
        {
          "internalType": "address",
          "name": "_vault",
          "type": "address"
        }
      ],
      "name": "setVault",
      "outputs": [],
      "stateMutability": "nonpayable",
      "type": "function"
    },
    {
      "inputs": [],
      "name": "stake",
      "outputs": [
        {
          "internalType": "address",
          "name": "",
          "type": "address"
        }
      ],
      "stateMutability": "view",
      "type": "function"
    },
    {
      "inputs": [
        {
          "internalType": "address[]",
          "name": "_strategies",
          "type": "address[]"
        }
      ],
      "name": "startEpoch",
      "outputs": [],
      "stateMutability": "nonpayable",
      "type": "function"
    },
    {
      "inputs": [
        {
          "internalType": "address",
          "name": "tokenA",
          "type": "address"
        },
        {
          "internalType": "address",
          "name": "tokenB",
          "type": "address"
        },
        {
          "internalType": "uint256",
          "name": "amount",
          "type": "uint256"
        }
      ],
      "name": "tokenAToTokenBConversion",
      "outputs": [
        {
          "internalType": "uint256",
          "name": "",
          "type": "uint256"
        }
      ],
      "stateMutability": "view",
      "type": "function"
    },
    {
      "inputs": [
        {
          "internalType": "address",
          "name": "token",
          "type": "address"
        },
        {
          "internalType": "uint256",
          "name": "amount",
          "type": "uint256"
        }
      ],
      "name": "tokenToLpTokenConversion",
      "outputs": [
        {
          "internalType": "uint256",
          "name": "",
          "type": "uint256"
        }
      ],
      "stateMutability": "view",
      "type": "function"
    },
    {
      "inputs": [
        {
          "internalType": "address",
          "name": "newOwner",
          "type": "address"
        }
      ],
      "name": "transferOwnership",
      "outputs": [],
      "stateMutability": "nonpayable",
      "type": "function"
    },
    {
      "inputs": [],
      "name": "unpause",
      "outputs": [],
      "stateMutability": "nonpayable",
      "type": "function"
    },
    {
      "inputs": [],
      "name": "vault",
      "outputs": [
        {
          "internalType": "address",
          "name": "",
          "type": "address"
        }
      ],
      "stateMutability": "view",
      "type": "function"
    },
    {
      "inputs": [
        {
          "internalType": "uint256",
          "name": "_amount",
          "type": "uint256"
        }
      ],
      "name": "withdraw",
      "outputs": [],
      "stateMutability": "nonpayable",
      "type": "function"
    }
  ],
  "bytecode": {
    "object": "0x60806040526008805460ff191690553480156200001b57600080fd5b5060405162004718380380620047188339810160408190526200003e9162000b54565b806200004a3362000494565b6000805460ff60a01b191681558151600180546001600160a01b03199081166001600160a01b0393841617825560209485015160028054831691851691909117905560038054339083161790556004919091558551600b8054831691841691909117905592850151600f556040850151600e8054851691831691909117905560a085015160088054610100600160a81b0319166101009284169290920291909117905560c0850151600980549094169116179091556060830151608084015181519192909183919062000121576200012162000c5b565b602090810291909101810151600a80546001600160a01b0319166001600160a01b03928316179055600b5460408051630dfe168160e01b815290519190921692630dfe168192600480820193918290030181865afa15801562000188573d6000803e3d6000fd5b505050506040513d601f19601f82011682018060405250810190620001ae919062000c71565b600c80546001600160a01b0319166001600160a01b03928316179055600a5483519116908390600090620001e657620001e662000c5b565b60200260200101516001600160a01b0316146200023e5760405162461bcd60e51b815260206004820152601160248201527021726577617264546f4c7030526f75746560781b60448201526064015b60405180910390fd5b600c5482516001600160a01b039091169083906200025f9060019062000c96565b8151811062000272576200027262000c5b565b60200260200101516001600160a01b031614620002c65760405162461bcd60e51b815260206004820152601160248201527021726577617264546f4c7030526f75746560781b604482015260640162000235565b8151620002db9060129060208501906200096e565b50600b60009054906101000a90046001600160a01b03166001600160a01b031663d21220a76040518163ffffffff1660e01b8152600401602060405180830381865afa15801562000330573d6000803e3d6000fd5b505050506040513d601f19601f8201168201806040525081019062000356919062000c71565b600d80546001600160a01b0319166001600160a01b03928316179055600a54825191169082906000906200038e576200038e62000c5b565b60200260200101516001600160a01b031614620003e25760405162461bcd60e51b815260206004820152601160248201527021726577617264546f4c7031526f75746560781b604482015260640162000235565b600d5481516001600160a01b03909116908290620004039060019062000c96565b8151811062000416576200041662000c5b565b60200260200101516001600160a01b0316146200046a5760405162461bcd60e51b815260206004820152601160248201527021726577617264546f4c7031526f75746560781b604482015260640162000235565b80516200047f9060139060208401906200096e565b506200048a620004e4565b5050505062000d75565b600080546001600160a01b038381166001600160a01b0319831681178455604051919092169283917f8be0079c531659141344cd1fd0a4f28419497f9722a3daafe3b4186f6b6457e09190a35050565b600e54600b5462000505916001600160a01b039182169116600019620005aa565b600254600a5462000526916001600160a01b039182169116600019620005aa565b600254600c5462000546916001600160a01b0391821691166000620005aa565b600254600c5462000567916001600160a01b039182169116600019620005aa565b600254600d5462000587916001600160a01b0391821691166000620005aa565b600254600d54620005a8916001600160a01b039182169116600019620005aa565b565b801580620006285750604051636eb1769f60e11b81523060048201526001600160a01b03838116602483015284169063dd62ed3e90604401602060405180830381865afa15801562000600573d6000803e3d6000fd5b505050506040513d601f19601f8201168201806040525081019062000626919062000cbe565b155b6200069c5760405162461bcd60e51b815260206004820152603660248201527f5361666545524332303a20617070726f76652066726f6d206e6f6e2d7a65726f60448201527f20746f206e6f6e2d7a65726f20616c6c6f77616e636500000000000000000000606482015260840162000235565b604080516001600160a01b038416602482015260448082018490528251808303909101815260649091019091526020810180516001600160e01b0390811663095ea7b360e01b17909152620006f4918591620006f916565b505050565b6040805180820190915260208082527f5361666545524332303a206c6f772d6c6576656c2063616c6c206661696c65649082015260009062000748906001600160a01b038516908490620007ca565b805190915015620006f4578080602001905181019062000769919062000cd8565b620006f45760405162461bcd60e51b815260206004820152602a60248201527f5361666545524332303a204552433230206f7065726174696f6e20646964206e6044820152691bdd081cdd58d8d9595960b21b606482015260840162000235565b6060620007db8484600085620007e3565b949350505050565b606082471015620008465760405162461bcd60e51b815260206004820152602660248201527f416464726573733a20696e73756666696369656e742062616c616e636520666f6044820152651c8818d85b1b60d21b606482015260840162000235565b600080866001600160a01b0316858760405162000864919062000d22565b60006040518083038185875af1925050503d8060008114620008a3576040519150601f19603f3d011682016040523d82523d6000602084013e620008a8565b606091505b509092509050620008bc87838387620008c7565b979650505050505050565b606083156200093b57825160000362000933576001600160a01b0385163b620009335760405162461bcd60e51b815260206004820152601d60248201527f416464726573733a2063616c6c20746f206e6f6e2d636f6e7472616374000000604482015260640162000235565b5081620007db565b620007db8383815115620009525781518083602001fd5b8060405162461bcd60e51b815260040162000235919062000d40565b828054828255906000526020600020908101928215620009c6579160200282015b82811115620009c657825182546001600160a01b0319166001600160a01b039091161782556020909201916001909101906200098f565b50620009d4929150620009d8565b5090565b5b80821115620009d45760008155600101620009d9565b634e487b7160e01b600052604160045260246000fd5b60405160e081016001600160401b038111828210171562000a2a5762000a2a620009ef565b60405290565b80516001600160a01b038116811462000a4857600080fd5b919050565b600082601f83011262000a5f57600080fd5b815160206001600160401b038083111562000a7e5762000a7e620009ef565b8260051b604051601f19603f8301168101818110848211171562000aa65762000aa6620009ef565b60405293845285810183019383810192508785111562000ac557600080fd5b83870191505b84821015620008bc5762000adf8262000a30565b8352918301919083019062000acb565b60006040828403121562000b0257600080fd5b604080519081016001600160401b038111828210171562000b275762000b27620009ef565b60405290508062000b388362000a30565b815262000b486020840162000a30565b60208201525092915050565b6000806060838503121562000b6857600080fd5b82516001600160401b038082111562000b8057600080fd5b9084019060e0828703121562000b9557600080fd5b62000b9f62000a05565b62000baa8362000a30565b81526020830151602082015262000bc46040840162000a30565b604082015260608301518281111562000bdc57600080fd5b62000bea8882860162000a4d565b60608301525060808301518281111562000c0357600080fd5b62000c118882860162000a4d565b60808301525062000c2560a0840162000a30565b60a082015262000c3860c0840162000a30565b60c082015280945050505062000c52846020850162000aef565b90509250929050565b634e487b7160e01b600052603260045260246000fd5b60006020828403121562000c8457600080fd5b62000c8f8262000a30565b9392505050565b8181038181111562000cb857634e487b7160e01b600052601160045260246000fd5b92915050565b60006020828403121562000cd157600080fd5b5051919050565b60006020828403121562000ceb57600080fd5b8151801515811462000c8f57600080fd5b60005b8381101562000d1957818101518382015260200162000cff565b50506000910152565b6000825162000d3681846020870162000cfc565b9190910192915050565b602081526000825180602084015262000d6181604085016020870162000cfc565b601f01601f19169190910160400192915050565b6139938062000d856000396000f3fe608060405234801561001057600080fd5b50600436106102d65760003560e01c806383e015f711610182578063c0d78655116100e9578063ef21c994116100a2578063f887ea401161007c578063f887ea40146105f0578063fb61778714610603578063fbfa77cf1461060b578063fc38a2961461061e57600080fd5b8063ef21c994146105cc578063f1a392da146105d4578063f2fde38b146105dd57600080fd5b8063c0d786551461057b578063c45a01551461058e578063d0e30db0146105a1578063d0ebdbe7146105a9578063d801d946146105bc578063e7a7250a146105c457600080fd5b80639bfad30a1161013b5780639bfad30a14610523578063a11d355614610536578063a839d5e61461054b578063b3a9c91c1461055e578063baac08cf14610566578063be3fbd1c1461057357600080fd5b806383e015f7146104995780638456cb59146104cc578063877562b6146104d45780638da5cb5b146104e7578063913a630b146104f857806392a85fde1461050b57600080fd5b806348162c79116102415780635c775b78116101fa5780636817031b116101d45780636817031b14610463578063715018a614610476578063722713f71461047e5780637702da1b1461048657600080fd5b80635c775b781461042a5780635c975abb146104325780635ee167c01461045057600080fd5b806348162c79146103a2578063481c6a75146103b557806349909340146103c85780634a3581ac14610404578063573fef0a146102e357806359e791381461041757600080fd5b80632e1a7d4d116102935780632e1a7d4d1461035b5780633a4b66f11461036e5780633e0dc34e146103815780633f4ba83a1461038a5780634641257d146103925780634700d3051461039a57600080fd5b80630b9663db146102db57806311588086146102e55780631fc8bc5d14610300578063228cb7331461032b578063277e5cfd1461033e578063286a876b14610353575b600080fd5b6102e3610631565b005b6102ed610dda565b6040519081526020015b60405180910390f35b600e54610313906001600160a01b031681565b6040516001600160a01b0390911681526020016102f7565b600a54610313906001600160a01b031681565b610346610e5c565b6040516102f791906131cd565b6102ed610eea565b6102e3610369366004613200565b610f5c565b600b54610313906001600160a01b031681565b6102ed600f5481565b6102e3611154565b6102e3611176565b6102e361117e565b6103136103b0366004613200565b6111f7565b600354610313906001600160a01b031681565b6103ef6103d636600461322e565b6005602052600090815260409020805460019091015482565b604080519283526020830191909152016102f7565b6102e36104123660046132b6565b611221565b6102e361042536600461334a565b61170c565b6102ed611726565b600054600160a01b900460ff165b60405190151581526020016102f7565b600c54610313906001600160a01b031681565b6102e361047136600461322e565b611826565b6102e3611883565b6102ed611895565b6102ed6104943660046133bc565b6118c3565b6104ac6104a73660046133e8565b611ae9565b604080516001600160a01b039384168152929091166020830152016102f7565b6102e3611b1a565b600d54610313906001600160a01b031681565b6000546001600160a01b0316610313565b6102ed6105063660046133bc565b611b32565b6008546103139061010090046001600160a01b031681565b6102ed610531366004613421565b611b76565b61053e611d0b565b6040516102f791906134a6565b610313610559366004613200565b611d6d565b6102e3611d7d565b6008546104409060ff1681565b61053e611dc5565b6102e361058936600461322e565b611e25565b600954610313906001600160a01b031681565b6102e3611e7b565b6102e36105b736600461322e565b611e97565b6102e3611eed565b6102ed611ef5565b6102e361204c565b6102ed60105481565b6102e36105eb36600461322e565b612091565b600254610313906001600160a01b031681565b6102e3612107565b600154610313906001600160a01b031681565b61031361062c366004613200565b612205565b6000600680548060200260200160405190810160405280929190818152602001828054801561068957602002820191906000526020600020905b81546001600160a01b0316815260019091019060200180831161066b575b50505050509050600061069a610dda565b600e54600f54604051630441a3e760e41b81526004810191909152602481018390529192506001600160a01b03169063441a3e7090604401600060405180830381600087803b1580156106ec57600080fd5b505af1158015610700573d6000803e3d6000fd5b50505050600061070e611726565b9050600083600081518110610725576107256134b9565b60200260200101516001600160a01b03166338d52e0f6040518163ffffffff1660e01b8152600401602060405180830381865afa15801561076a573d6000803e3d6000fd5b505050506040513d601f19601f8201168201806040525081019061078e91906134cf565b90506000846001815181106107a5576107a56134b9565b60200260200101516001600160a01b03166338d52e0f6040518163ffffffff1660e01b8152600401602060405180830381865afa1580156107ea573d6000803e3d6000fd5b505050506040513d601f19601f8201168201806040525081019061080e91906134cf565b600b5460025460405163095ea7b360e01b81526001600160a01b03918216600482015260248101879052929350169063095ea7b3906044016020604051808303816000875af1158015610865573d6000803e3d6000fd5b505050506040513d601f19601f8201168201806040525081019061088991906134ec565b50600254604051635d5155ef60e11b81526001600160a01b038481166004830152838116602483015260448201869052600060648301819052608483018190523060a48401524260c484015292839291169063baa2abde9060e40160408051808303816000875af1158015610902573d6000803e3d6000fd5b505050506040513d601f19601f82011682018060405250810190610926919061350e565b604080516002808252606082018352939550919350600092906020830190803683370190505090508381600081518110610962576109626134b9565b60200260200101906001600160a01b031690816001600160a01b0316815250508481600181518110610996576109966134b9565b6001600160a01b0392909216602092830291909101820152604080516002808252606082018352600093919290918301908036833701905050905085816000815181106109e5576109e56134b9565b60200260200101906001600160a01b031690816001600160a01b0316815250508481600181518110610a1957610a196134b9565b6001600160a01b0392831660209182029290920101526002546040516338ed173960e01b81529116906338ed173990610a5f908690600090879030904290600401613532565b6000604051808303816000875af1158015610a7e573d6000803e3d6000fd5b505050506040513d6000823e601f3d908101601f19168201604052610aa6919081019061356e565b506040516370a0823160e01b81523060048201526000906001600160a01b038816906370a0823190602401602060405180830381865afa158015610aee573d6000803e3d6000fd5b505050506040513d601f19601f82011682018060405250810190610b1291906135f4565b90506000600560008c600081518110610b2d57610b2d6134b9565b60200260200101516001600160a01b03166001600160a01b0316815260200190815260200160002060010154905060008183610b699190613623565b6002546040516338ed173960e01b81529192506001600160a01b0316906338ed173990610ba3908490600090899030904290600401613532565b6000604051808303816000875af1158015610bc2573d6000803e3d6000fd5b505050506040513d6000823e601f3d908101601f19168201604052610bea919081019061356e565b50610c858c600081518110610c0157610c016134b9565b60209081029190910101516040516370a0823160e01b81523060048201526001600160a01b038c16906370a0823190602401602060405180830381865afa158015610c50573d6000803e3d6000fd5b505050506040513d601f19601f82011682018060405250810190610c7491906135f4565b6001600160a01b038c169190612215565b610d1f8c600181518110610c9b57610c9b6134b9565b60209081029190910101516040516370a0823160e01b81523060048201526001600160a01b038b16906370a0823190602401602060405180830381865afa158015610cea573d6000803e3d6000fd5b505050506040513d601f19601f82011682018060405250810190610d0e91906135f4565b6001600160a01b038b169190612215565b600560008d600081518110610d3657610d366134b9565b60200260200101516001600160a01b03166001600160a01b0316815260200190815260200160002060008082016000905560018201600090555050600560008d600181518110610d8857610d886134b9565b6020908102919091018101516001600160a01b031682528101919091526040016000908120818155600101819055610dc290600690613111565b50506008805460ff1916905550505050505050505050565b600e54600f546040516393f1a40b60e01b8152600481019190915230602482015260009182916001600160a01b03909116906393f1a40b906044016040805180830381865afa158015610e31573d6000803e3d6000fd5b505050506040513d601f19601f82011682018060405250810190610e55919061350e565b5092915050565b60118054610e6990613636565b80601f0160208091040260200160405190810160405280929190818152602001828054610e9590613636565b8015610ee25780601f10610eb757610100808354040283529160200191610ee2565b820191906000526020600020905b815481529060010190602001808311610ec557829003601f168201915b505050505081565b600b546040516370a0823160e01b81523060048201526000916001600160a01b0316906370a0823190602401602060405180830381865afa158015610f33573d6000803e3d6000fd5b505050506040513d601f19601f82011682018060405250810190610f5791906135f4565b905090565b610f64612278565b610f6c611d7d565b60085460ff161515600103610f8057600080fd5b600b546040516370a0823160e01b81523060048201526000916001600160a01b0316906370a0823190602401602060405180830381865afa158015610fc9573d6000803e3d6000fd5b505050506040513d601f19601f82011682018060405250810190610fed91906135f4565b9050818110156110de57600e54600f546001600160a01b039091169063441a3e70906110198486613623565b6040516001600160e01b031960e085901b16815260048101929092526024820152604401600060405180830381600087803b15801561105757600080fd5b505af115801561106b573d6000803e3d6000fd5b5050600b546040516370a0823160e01b81523060048201526001600160a01b0390911692506370a082319150602401602060405180830381865afa1580156110b7573d6000803e3d6000fd5b505050506040513d601f19601f820116820180604052508101906110db91906135f4565b90505b818111156110e95750805b600154600b54611106916001600160a01b03918216911683612215565b7f56ca301a9219608c91e7bcee90e083c19671d2cdcc96752c7af291cee5f9c8c861112f611895565b60408051918252602082018490520160405180910390a1506111516001600455565b50565b61115c61204c565b6111646122d1565b61116c612326565b6111746123de565b565b61117461251d565b61118661204c565b61118e611b1a565b600e54600f54604051632989754760e11b81526001600160a01b0390921691635312ea8e916111c39160040190815260200190565b600060405180830381600087803b1580156111dd57600080fd5b505af11580156111f1573d6000803e3d6000fd5b50505050565b6012818154811061120757600080fd5b6000918252602090912001546001600160a01b0316905081565b61122961266c565b805160021461123757600080fd5b60085460ff16151560010361124b57600080fd5b805161125e90600690602084019061312f565b50600061137282600081518110611277576112776134b9565b60200260200101516001600160a01b03166338d52e0f6040518163ffffffff1660e01b8152600401602060405180830381865afa1580156112bc573d6000803e3d6000fd5b505050506040513d601f19601f820116820180604052508101906112e091906134cf565b600860019054906101000a90046001600160a01b031684600081518110611309576113096134b9565b60200260200101516001600160a01b031663797bf3436040518163ffffffff1660e01b8152600401602060405180830381865afa15801561134e573d6000803e3d6000fd5b505050506040513d601f19601f8201168201806040525081019061053191906135f4565b9050600061141e8360018151811061138c5761138c6134b9565b60200260200101516001600160a01b03166338d52e0f6040518163ffffffff1660e01b8152600401602060405180830381865afa1580156113d1573d6000803e3d6000fd5b505050506040513d601f19601f820116820180604052508101906113f591906134cf565b600860019054906101000a90046001600160a01b031685600181518110611309576113096134b9565b90508082111561142e5780611430565b815b60078190555060006114d5600860019054906101000a90046001600160a01b031685600081518110611464576114646134b9565b60200260200101516001600160a01b03166338d52e0f6040518163ffffffff1660e01b8152600401602060405180830381865afa1580156114a9573d6000803e3d6000fd5b505050506040513d601f19601f820116820180604052508101906114cd91906134cf565b600754611b76565b90506000611505600860019054906101000a90046001600160a01b031686600181518110611464576114646134b9565b90506115b48560008151811061151d5761151d6134b9565b602002602001015130848860008151811061153a5761153a6134b9565b60200260200101516001600160a01b03166338d52e0f6040518163ffffffff1660e01b8152600401602060405180830381865afa15801561157f573d6000803e3d6000fd5b505050506040513d601f19601f820116820180604052508101906115a391906134cf565b6001600160a01b03169291906126c6565b6115e7856001815181106115ca576115ca6134b9565b602002602001015130838860018151811061153a5761153a6134b9565b604051806040016040528083815260200161161c848860008151811061160f5761160f6134b9565b60200260200101516126fe565b8152506005600087600081518110611636576116366134b9565b60200260200101516001600160a01b03166001600160a01b031681526020019081526020016000206000820151816000015560208201518160010155905050604051806040016040528082815260200161169d838860018151811061160f5761160f6134b9565b81525060056000876001815181106116b7576116b76134b9565b6020908102919091018101516001600160a01b0316825281810192909252604001600020825181559101516001909101556116f06127e2565b6116f86123de565b50506008805460ff19166001179055505050565b61171461204c565b60116117218284836136b8565b505050565b60008060005b600654811015611820576118026006828154811061174c5761174c6134b9565b60009182526020918290200154604080516338d52e0f60e01b815290516001600160a01b03909216926338d52e0f926004808401938290030181865afa15801561179a573d6000803e3d6000fd5b505050506040513d601f19601f820116820180604052508101906117be91906134cf565b60056000600685815481106117d5576117d56134b9565b60009182526020808320909101546001600160a01b03168352820192909252604001902060010154611b32565b61180c9083613778565b9150806118188161378b565b91505061172c565b50919050565b61182e61204c565b600180546001600160a01b0319166001600160a01b0383169081179091556040519081527fd459c7242e23d490831b5676a611c4342d899d28f342d89ae80793e56a930f30906020015b60405180910390a150565b61188b61266c565b611174600061296f565b600061189f611726565b6118a7610dda565b6118af610eea565b6118b99190613778565b610f579190613623565b6000806000846001600160a01b0316630902f1ac6040518163ffffffff1660e01b8152600401606060405180830381865afa158015611906573d6000803e3d6000fd5b505050506040513d601f19601f8201168201806040525081019061192a91906137c0565b50915091506000856001600160a01b0316630dfe16816040518163ffffffff1660e01b8152600401602060405180830381865afa15801561196f573d6000803e3d6000fd5b505050506040513d601f19601f8201168201806040525081019061199391906134cf565b90506000866001600160a01b031663d21220a76040518163ffffffff1660e01b8152600401602060405180830381865afa1580156119d5573d6000803e3d6000fd5b505050506040513d601f19601f820116820180604052508101906119f991906134cf565b90506000611a2683600860019054906101000a90046001600160a01b0316876001600160701b0316611b76565b90506000611a5383600860019054906101000a90046001600160a01b0316876001600160701b0316611b76565b90506000896001600160a01b03166318160ddd6040518163ffffffff1660e01b8152600401602060405180830381865afa158015611a95573d6000803e3d6000fd5b505050506040513d601f19601f82011682018060405250810190611ab991906135f4565b9050611ac58284613778565b611acf8a83613810565b611ad99190613827565b9750505050505050505b92915050565b600080826001600160a01b0316846001600160a01b031610611b0c578284611b0f565b83835b915091509250929050565b611b2261204c565b611b2a6129bf565b611174612a02565b600080611b5584600860019054906101000a90046001600160a01b031685611b76565b600b54909150611b6e906001600160a01b0316826118c3565b949350505050565b6000826001600160a01b0316846001600160a01b031603611b98575080611d04565b60095460405163e6a4390560e01b81526001600160a01b0386811660048301528581166024830152600092169063e6a4390590604401602060405180830381865afa158015611beb573d6000803e3d6000fd5b505050506040513d601f19601f82011682018060405250810190611c0f91906134cf565b9050600080826001600160a01b0316630902f1ac6040518163ffffffff1660e01b8152600401606060405180830381865afa158015611c52573d6000803e3d6000fd5b505050506040513d601f19601f82011682018060405250810190611c7691906137c0565b5091509150600080611c888989611ae9565b91509150886001600160a01b0316826001600160a01b031614611cd357826001600160701b0316846001600160701b031688611cc49190613810565b611cce9190613827565b611cfc565b836001600160701b0316836001600160701b031688611cf29190613810565b611cfc9190613827565b955050505050505b9392505050565b60606013805480602002602001604051908101604052809291908181526020018280548015611d6357602002820191906000526020600020905b81546001600160a01b03168152600190910190602001808311611d45575b5050505050905090565b6013818154811061120757600080fd5b6001546001600160a01b031633146111745760405162461bcd60e51b8152602060048201526006602482015265085d985d5b1d60d21b60448201526064015b60405180910390fd5b60606012805480602002602001604051908101604052809291908181526020018280548015611d63576020028201919060005260206000209081546001600160a01b03168152600190910190602001808311611d45575050505050905090565b611e2d61204c565b600280546001600160a01b0319166001600160a01b0383169081179091556040519081527f6de4326a8b9054d72d9dbab97d27bc4edffadee7d966f5af9cc4eafdaf8e545590602001611878565b611e83611d7d565b60085460ff16151560010361116c57600080fd5b611e9f61204c565b600380546001600160a01b0319166001600160a01b0383169081179091556040519081527f54a6385aa0292b04e1ef8513253c17d1863f7cdfc87029d77fd55cc4c2e717e290602001611878565b61117661204c565b600080611fb560118054611f0890613636565b80601f0160208091040260200160405190810160405280929190818152602001828054611f3490613636565b8015611f815780601f10611f5657610100808354040283529160200191611f81565b820191906000526020600020905b815481529060010190602001808311611f6457829003601f168201915b5050505050604051806040016040528060118152602001702875696e743235362c616464726573732960781b815250612a7a565b600e54600f54604051602481019190915230604482015291925060009161202f916001600160a01b031690849060640160408051601f19818403018152908290529161200091613849565b6040519081900390206020820180516001600160e01b03166001600160e01b0319909216919091179052612aa6565b90508080602001905181019061204591906135f4565b9250505090565b6003546001600160a01b031633146111745760405162461bcd60e51b815260206004820152600860248201526710b6b0b730b3b2b960c11b6044820152606401611dbc565b61209961266c565b6001600160a01b0381166120fe5760405162461bcd60e51b815260206004820152602660248201527f4f776e61626c653a206e6577206f776e657220697320746865207a65726f206160448201526564647265737360d01b6064820152608401611dbc565b6111518161296f565b61210f611d7d565b600e54600f54604051632989754760e11b81526001600160a01b0390921691635312ea8e916121449160040190815260200190565b600060405180830381600087803b15801561215e57600080fd5b505af1158015612172573d6000803e3d6000fd5b5050600b546040516370a0823160e01b8152306004820152600093506001600160a01b0390911691506370a0823190602401602060405180830381865afa1580156121c1573d6000803e3d6000fd5b505050506040513d601f19601f820116820180604052508101906121e591906135f4565b600154600b54919250611151916001600160a01b03908116911683612215565b6006818154811061120757600080fd5b6040516001600160a01b03831660248201526044810182905261172190849063a9059cbb60e01b906064015b60408051601f198184030181529190526020810180516001600160e01b03166001600160e01b031990931692909217909152612acb565b6002600454036122ca5760405162461bcd60e51b815260206004820152601f60248201527f5265656e7472616e637947756172643a207265656e7472616e742063616c6c006044820152606401611dbc565b6002600455565b6122d9612b9d565b6000805460ff60a01b191690557f5db9ee0a495bf2e6ff9c91a7834c1ba4fdd244a5e8aa4e537bd38aeae4b073aa335b6040516001600160a01b03909116815260200160405180910390a1565b600e54600b54612345916001600160a01b039182169116600019612bed565b600254600a54612364916001600160a01b039182169116600019612bed565b600254600c54612382916001600160a01b0391821691166000612bed565b600254600c546123a1916001600160a01b039182169116600019612bed565b600254600d546123bf916001600160a01b0391821691166000612bed565b600254600d54611174916001600160a01b039182169116600019612bed565b6123e6612d02565b6123ee612278565b600b546040516370a0823160e01b81523060048201526000916001600160a01b0316906370a0823190602401602060405180830381865afa158015612437573d6000803e3d6000fd5b505050506040513d601f19601f8201168201806040525081019061245b91906135f4565b9050801561251257600e54600f54604051631c57762b60e31b81526001600160a01b039092169163e2bbb1589161249f918590600401918252602082015260400190565b600060405180830381600087803b1580156124b957600080fd5b505af11580156124cd573d6000803e3d6000fd5b505050507fa3af609bf46297028ce551832669030f9effef2b02606d02cbbcc40fe6b47c556124fa611895565b60408051918252602082018490520160405180910390a15b506111746001600455565b612525612d02565b600e54600f54604051631c57762b60e31b81526004810191909152600060248201526001600160a01b039091169063e2bbb15890604401600060405180830381600087803b15801561257657600080fd5b505af115801561258a573d6000803e3d6000fd5b5050600a546040516370a0823160e01b8152306004820152600093506001600160a01b0390911691506370a0823190602401602060405180830381865afa1580156125d9573d6000803e3d6000fd5b505050506040513d601f19601f820116820180604052508101906125fd91906135f4565b905080156111515761260d612d4f565b6000612617610eea565b90506126216123de565b42601055337f9bc239f1724cacfb88cb1d66a2dc437467699b68a8c90d7b63110cf4b6f9241082612650611895565b6040805192835260208301919091520160405180910390a25050565b6000546001600160a01b031633146111745760405162461bcd60e51b815260206004820181905260248201527f4f776e61626c653a2063616c6c6572206973206e6f7420746865206f776e65726044820152606401611dbc565b6040516001600160a01b03808516602483015283166044820152606481018290526111f19085906323b872dd60e01b90608401612241565b6000816001600160a01b031663567d1ebf6040518163ffffffff1660e01b8152600401602060405180830381865afa15801561273e573d6000803e3d6000fd5b505050506040513d601f19601f8201168201806040525081019061276291906135f4565b826001600160a01b031663c392f7666040518163ffffffff1660e01b8152600401602060405180830381865afa1580156127a0573d6000803e3d6000fd5b505050506040513d601f19601f820116820180604052508101906127c491906135f4565b6127ce9085613810565b6127d89190613827565b611d049084613778565b600c546040516370a0823160e01b81523060048201526000916001600160a01b0316906370a0823190602401602060405180830381865afa15801561282b573d6000803e3d6000fd5b505050506040513d601f19601f8201168201806040525081019061284f91906135f4565b600d546040516370a0823160e01b81523060048201529192506000916001600160a01b03909116906370a0823190602401602060405180830381865afa15801561289d573d6000803e3d6000fd5b505050506040513d601f19601f820116820180604052508101906128c191906135f4565b600254600c54600d5460405162e8e33760e81b81526001600160a01b0392831660048201529082166024820152604481018690526064810184905260016084820181905260a48201523060c48201524260e4820152929350169063e8e3370090610104016060604051808303816000875af1158015612944573d6000803e3d6000fd5b505050506040513d601f19601f820116820180604052508101906129689190613865565b5050505050565b600080546001600160a01b038381166001600160a01b0319831681178455604051919092169283917f8be0079c531659141344cd1fd0a4f28419497f9722a3daafe3b4186f6b6457e09190a35050565b6129c7612d02565b6000805460ff60a01b1916600160a01b1790557f62e78cea01bee320cd4e420270b5ea74000d11b0c9f74754ebdbfc544b05a2586123093390565b600e54600b54612a20916001600160a01b0391821691166000612bed565b600254600a54612a3e916001600160a01b0391821691166000612bed565b600254600c54612a5c916001600160a01b0391821691166000612bed565b600254600d54611174916001600160a01b0391821691166000612bed565b60608282604051602001612a8f929190613893565b604051602081830303815290604052905092915050565b6060611d04838360405180606001604052806025815260200161393960259139612f0c565b6000612b20826040518060400160405280602081526020017f5361666545524332303a206c6f772d6c6576656c2063616c6c206661696c6564815250856001600160a01b0316612f849092919063ffffffff16565b8051909150156117215780806020019051810190612b3e91906134ec565b6117215760405162461bcd60e51b815260206004820152602a60248201527f5361666545524332303a204552433230206f7065726174696f6e20646964206e6044820152691bdd081cdd58d8d9595960b21b6064820152608401611dbc565b600054600160a01b900460ff166111745760405162461bcd60e51b815260206004820152601460248201527314185d5cd8589b194e881b9bdd081c185d5cd95960621b6044820152606401611dbc565b801580612c675750604051636eb1769f60e11b81523060048201526001600160a01b03838116602483015284169063dd62ed3e90604401602060405180830381865afa158015612c41573d6000803e3d6000fd5b505050506040513d601f19601f82011682018060405250810190612c6591906135f4565b155b612cd25760405162461bcd60e51b815260206004820152603660248201527f5361666545524332303a20617070726f76652066726f6d206e6f6e2d7a65726f60448201527520746f206e6f6e2d7a65726f20616c6c6f77616e636560501b6064820152608401611dbc565b6040516001600160a01b03831660248201526044810182905261172190849063095ea7b360e01b90606401612241565b600054600160a01b900460ff16156111745760405162461bcd60e51b815260206004820152601060248201526f14185d5cd8589b194e881c185d5cd95960821b6044820152606401611dbc565b600a546040516370a0823160e01b81523060048201526000916002916001600160a01b03909116906370a0823190602401602060405180830381865afa158015612d9d573d6000803e3d6000fd5b505050506040513d601f19601f82011682018060405250810190612dc191906135f4565b612dcb9190613827565b600a54600c549192506001600160a01b03918216911614612e69576002546040516338ed173960e01b81526001600160a01b03909116906338ed173990612e20908490600090601290309042906004016138c2565b6000604051808303816000875af1158015612e3f573d6000803e3d6000fd5b505050506040513d6000823e601f3d908101601f19168201604052612e67919081019061356e565b505b600a54600d546001600160a01b03908116911614612f04576002546040516338ed173960e01b81526001600160a01b03909116906338ed173990612ebb908490600090601390309042906004016138c2565b6000604051808303816000875af1158015612eda573d6000803e3d6000fd5b505050506040513d6000823e601f3d908101601f19168201604052612f02919081019061356e565b505b6111516127e2565b6060600080856001600160a01b031685604051612f299190613849565b600060405180830381855afa9150503d8060008114612f64576040519150601f19603f3d011682016040523d82523d6000602084013e612f69565b606091505b5091509150612f7a86838387612f93565b9695505050505050565b6060611b6e848460008561300c565b60608315613002578251600003612ffb576001600160a01b0385163b612ffb5760405162461bcd60e51b815260206004820152601d60248201527f416464726573733a2063616c6c20746f206e6f6e2d636f6e74726163740000006044820152606401611dbc565b5081611b6e565b611b6e83836130e7565b60608247101561306d5760405162461bcd60e51b815260206004820152602660248201527f416464726573733a20696e73756666696369656e742062616c616e636520666f6044820152651c8818d85b1b60d21b6064820152608401611dbc565b600080866001600160a01b031685876040516130899190613849565b60006040518083038185875af1925050503d80600081146130c6576040519150601f19603f3d011682016040523d82523d6000602084013e6130cb565b606091505b50915091506130dc87838387612f93565b979650505050505050565b8151156130f75781518083602001fd5b8060405162461bcd60e51b8152600401611dbc91906131cd565b50805460008255906000526020600020908101906111519190613194565b828054828255906000526020600020908101928215613184579160200282015b8281111561318457825182546001600160a01b0319166001600160a01b0390911617825560209092019160019091019061314f565b50613190929150613194565b5090565b5b808211156131905760008155600101613195565b60005b838110156131c45781810151838201526020016131ac565b50506000910152565b60208152600082518060208401526131ec8160408501602087016131a9565b601f01601f19169190910160400192915050565b60006020828403121561321257600080fd5b5035919050565b6001600160a01b038116811461115157600080fd5b60006020828403121561324057600080fd5b8135611d0481613219565b634e487b7160e01b600052604160045260246000fd5b604051601f8201601f1916810167ffffffffffffffff8111828210171561328a5761328a61324b565b604052919050565b600067ffffffffffffffff8211156132ac576132ac61324b565b5060051b60200190565b600060208083850312156132c957600080fd5b823567ffffffffffffffff8111156132e057600080fd5b8301601f810185136132f157600080fd5b80356133046132ff82613292565b613261565b81815260059190911b8201830190838101908783111561332357600080fd5b928401925b828410156130dc57833561333b81613219565b82529284019290840190613328565b6000806020838503121561335d57600080fd5b823567ffffffffffffffff8082111561337557600080fd5b818501915085601f83011261338957600080fd5b81358181111561339857600080fd5b8660208285010111156133aa57600080fd5b60209290920196919550909350505050565b600080604083850312156133cf57600080fd5b82356133da81613219565b946020939093013593505050565b600080604083850312156133fb57600080fd5b823561340681613219565b9150602083013561341681613219565b809150509250929050565b60008060006060848603121561343657600080fd5b833561344181613219565b9250602084013561345181613219565b929592945050506040919091013590565b600081518084526020808501945080840160005b8381101561349b5781516001600160a01b031687529582019590820190600101613476565b509495945050505050565b602081526000611d046020830184613462565b634e487b7160e01b600052603260045260246000fd5b6000602082840312156134e157600080fd5b8151611d0481613219565b6000602082840312156134fe57600080fd5b81518015158114611d0457600080fd5b6000806040838503121561352157600080fd5b505080516020909101519092909150565b85815284602082015260a06040820152600061355160a0830186613462565b6001600160a01b0394909416606083015250608001529392505050565b6000602080838503121561358157600080fd5b825167ffffffffffffffff81111561359857600080fd5b8301601f810185136135a957600080fd5b80516135b76132ff82613292565b81815260059190911b820183019083810190878311156135d657600080fd5b928401925b828410156130dc578351825292840192908401906135db565b60006020828403121561360657600080fd5b5051919050565b634e487b7160e01b600052601160045260246000fd5b81810381811115611ae357611ae361360d565b600181811c9082168061364a57607f821691505b60208210810361182057634e487b7160e01b600052602260045260246000fd5b601f82111561172157600081815260208120601f850160051c810160208610156136915750805b601f850160051c820191505b818110156136b05782815560010161369d565b505050505050565b67ffffffffffffffff8311156136d0576136d061324b565b6136e4836136de8354613636565b8361366a565b6000601f84116001811461371857600085156137005750838201355b600019600387901b1c1916600186901b178355612968565b600083815260209020601f19861690835b828110156137495786850135825560209485019460019092019101613729565b50868210156137665760001960f88860031b161c19848701351681555b505060018560011b0183555050505050565b80820180821115611ae357611ae361360d565b60006001820161379d5761379d61360d565b5060010190565b80516001600160701b03811681146137bb57600080fd5b919050565b6000806000606084860312156137d557600080fd5b6137de846137a4565b92506137ec602085016137a4565b9150604084015163ffffffff8116811461380557600080fd5b809150509250925092565b8082028115828204841417611ae357611ae361360d565b60008261384457634e487b7160e01b600052601260045260246000fd5b500490565b6000825161385b8184602087016131a9565b9190910192915050565b60008060006060848603121561387a57600080fd5b8351925060208401519150604084015190509250925092565b600083516138a58184602088016131a9565b8351908301906138b98183602088016131a9565b01949350505050565b600060a082018783526020878185015260a0604085015281875480845260c0860191508860005282600020935060005b818110156139175784546001600160a01b0316835260019485019492840192016138f2565b50506001600160a01b0396909616606085015250505060800152939250505056fe416464726573733a206c6f772d6c6576656c207374617469632063616c6c206661696c6564a264697066735822122064c544a692e92dae696059d62d15063ce73802bab898d73ce9e557d0ae4c87b664736f6c63430008130033",
    "linkReferences": {}
  },
  "methodIdentifiers": {
    "_calculatFixedReturnLp()": "5c775b78",
    "arrangeTokens(address,address)": "83e015f7",
    "assetStrategies(uint256)": "fc38a296",
    "assetStrategyMap(address)": "49909340",
    "balanceOf()": "722713f7",
    "balanceOfPool()": "11588086",
    "balanceOfStake()": "286a876b",
    "baseCurrency()": "92a85fde",
    "baseTokenToLpTokenConversion(address,uint256)": "7702da1b",
    "beforeDeposit()": "573fef0a",
    "chef()": "1fc8bc5d",
    "deposit()": "d0e30db0",
    "endEpoch()": "0b9663db",
    "epochRunning()": "baac08cf",
    "factory()": "c45a0155",
    "harvest()": "4641257d",
    "lastHarvest()": "f1a392da",
    "lpToken0()": "5ee167c0",
    "lpToken1()": "877562b6",
    "manager()": "481c6a75",
    "managerHarvest()": "d801d946",
    "onlyManager()": "ef21c994",
    "onlyVault()": "b3a9c91c",
    "owner()": "8da5cb5b",
    "panic()": "4700d305",
    "pause()": "8456cb59",
    "paused()": "5c975abb",
    "pendingRewardsFunctionName()": "277e5cfd",
    "poolId()": "3e0dc34e",
    "renounceOwnership()": "715018a6",
    "retireStrat()": "fb617787",
    "reward()": "228cb733",
    "rewardToLp0()": "be3fbd1c",
    "rewardToLp0Route(uint256)": "48162c79",
    "rewardToLp1()": "a11d3556",
    "rewardToLp1Route(uint256)": "a839d5e6",
    "rewardsAvailable()": "e7a7250a",
    "router()": "f887ea40",
    "setManager(address)": "d0ebdbe7",
    "setPendingRewardsFunctionName(string)": "59e79138",
    "setRouter(address)": "c0d78655",
    "setVault(address)": "6817031b",
    "stake()": "3a4b66f1",
    "startEpoch(address[])": "4a3581ac",
    "tokenAToTokenBConversion(address,address,uint256)": "9bfad30a",
    "tokenToLpTokenConversion(address,uint256)": "913a630b",
    "transferOwnership(address)": "f2fde38b",
    "unpause()": "3f4ba83a",
    "vault()": "fbfa77cf",
    "withdraw(uint256)": "2e1a7d4d"
  },
  "id": 36
}